{
  "contractName": "MyContract",
  "abi": [
    {
      "anonymous": false,
      "inputs": [
        {
          "indexed": true,
          "internalType": "uint256",
          "name": "id",
          "type": "uint256"
        },
        {
          "indexed": true,
          "internalType": "uint256",
          "name": "date",
          "type": "uint256"
        },
        {
          "indexed": false,
          "internalType": "string",
          "name": "value",
          "type": "string"
        }
      ],
      "name": "MyEvent",
      "type": "event"
    },
    {
      "constant": false,
      "inputs": [
        {
          "internalType": "string",
          "name": "value",
          "type": "string"
        }
      ],
      "name": "emitEvent",
      "outputs": [],
      "payable": false,
      "stateMutability": "nonpayable",
      "type": "function"
    }
  ],
  "bytecode": "0x608060405234801561001057600080fd5b5061015a806100206000396000f3fe608060405234801561001057600080fd5b506004361061002b5760003560e01c8063982296a814610030575b600080fd5b6100a76004803603602081101561004657600080fd5b810190808035906020019064010000000081111561006357600080fd5b82018360208201111561007557600080fd5b8035906020019184600183028401116401000000008311171561009757600080fd5b90919293919293905050506100a9565b005b426000547fb471d59b9e8fe78ab0670c11fe84df6ab431139b43533ab6764e0b15b8d6c39a848460405180806020018281038252848482818152602001925080828437600081840152601f19601f820116905080830192505050935050505060405180910390a36000808154809291906001019190505550505056fea265627a7a72315820902f128dbadbf7d41572e5895206e21ac6a25a31af155f3c2e8fe7b3081581f964736f6c63430005100032",
  "source": "pragma solidity  ^0.5.0;\n\n// contract MyContract {\n//     uint data;\n\n//     function getData() external view returns(uint) {\n//         return data;\n//     }\n\n//     function setData(uint _data) external {\n//         data = _data;\n//     }\n\n//     function setDataPrivate(uint _data) private {\n//         data = _data + 10;\n//     }\n// }\n\n// contract MyContract {\n//     string public functionCalled;\n\n//     function sendEther() external payable {\n//         functionCalled = 'sendEther';\n//     }\n\n//     function() external payable {\n//         functionCalled = 'fallback';\n//     }\n// }\n\ncontract MyContract { \n    event MyEvent (\n        uint indexed id,\n        uint indexed date,\n        string value\n    );\n\n    uint nextId;\n    function emitEvent(string calldata value) external {\n        emit MyEvent(nextId, now, value);\n        nextId++;\n    }\n}",
  "sourcePath": "/Users/nguyenvanhai/Desktop/BlockChain/Web3Totorial/DayOne/contracts/MyContract.sol",
  "compiler": {
    "name": "solc",
    "version": "0.5.16+commit.9c3226ce.Emscripten.clang"
  },
  "schemaVersion": "3.4.1",
  "updatedAt": "2021-07-22T09:58:12.004Z",
  "networkType": "ethereum",
  "devdoc": {
    "methods": {}
  },
  "userdoc": {
    "methods": {}
  }
}